:020000020000FC
:020000000DC031
:0200080049C0ED
:10001A008EC00FED0DBFFFEFEFEF3197F1F70FE154
:10002A000BBD0FE30ABD00E00FBD09E00EBD00E401
:10003A0009BF0027009365000093660000936700DC
:10004A0002B3087F02BB01B3076001BB08B30170AA
:10005A0008BB07B30E6F07BB0CE706BF04E003BF7C
:10006A0002E000BF09B7016009BF8B9804E1009361
:10007A0060000027009362000093610055278C9866
:10008A008E980027009363000093640095988D9AD8
:10009A00AEC2EF93FF93EFB7EF93E0916000EA955A
:1000AA0011F44061E4E1E0936000F0917800E0919E
:1000BA007700FF93FE2BFF9121F0319711F4477FD0
:1000CA004460E0937700F0937800E0917900EA9534
:1000DA0011F44160E4E6E0937900E0917B00EA954F
:1000EA0011F44260E8ECE0937B00F0917D00E0912E
:1000FA007C00319719F44460F7E0E0EDE0937C006E
:10010A00F0937D00F0916200E0916100FF93FE2B75
:10011A00FF9131F0319711F455275460E093610053
:10012A00F0936200EF91EFBFFF91EF9118950F9353
:10013A001F93EF93FF93EFB7EF9302B3087F02BBCE
:10014A0000916900FF27E5E6E00F108118BBE5EB97
:10015A00E00F0395033008F0002700936900099423
:10016A0002C003C004C0929A03C0919A01C0909A37
:10017A00EF91EFBFFF91EF911F910F911895112702
:10018A0010936500109366001093670007FB0EF446
:10019A000195043608F00CC00A3028F01EF410E469
:1001AA00109367000CC01EF410E41093660011C08F
:1001BA00F1E0EEEE31961491045610936700F1E0E7
:1001CA00EEEE0A5010F03196FCCF065F14911093B0
:1001DA006600F1E0EEEEE00F0027F01F04910093B5
:1001EA0065000895BEA0CEEAF07A7EA2FEFA1895BE
:1001FA004F7E839B06C0552750936200509361003F
:10020A00089550FD17C0516052FF03C001E06027F6
:10021A00089560FD04C00091740077D10895477F66
:10022A0061FD05E062FD09E063FD01E164FD03E0B3
:10023A00602F089551FD0895526008EB1BE000936A
:10024A0061001093620008950027849B0160869BD9
:10025A00026010916300011701F1112339F4109320
:10026A006400013019F10230D9F014C0113029F4B8
:10027A000330E1F00023A1F00DC0133029F402305D
:10028A00A9F0013069F006C0123021F4002371F0A0
:10029A00033031F01127109364000093630008952E
:1002AA001091640013951093640005C010916400C6
:1002BA001A9510936400002381F7143019F01C3F3B
:1002CA0019F0EBCF2CD1E9CF31D1E7CF2227E8942F
:1002DA0017F4F8946894D19AD09AD998D8980EE6D7
:1002EA0078D00A95E9F7D198D09804E172D00A95A6
:1002FA00E9F7C9992160C89922600EE16AD00A9586
:10030A00E9F70EF478940895D19AD09AD998D898A2
:10031A0001E05FD00A95E9F7D198D098D99AD89A8E
:10032A0002E057D00A95E9F700916A008894C999C2
:10033A000894079500936A0000916B008894C89905
:10034A000894079500936B000AE043D00A95E9F7F1
:10035A000895E89417F4F89468941F93002700937B
:10036A006A0000936B0018E0CFDF1A95E9F7D19A7B
:10037A00D09AD99AD89A1F910EF4789408950F9327
:10038A00D19AD09AD998D89802E023D00A95E9F759
:10039A0010F4D99AD89A0CE01CD00A95E9F7D99AA0
:1003AA00D89A02E016D00A95E9F70F910895E894D1
:1003BA0017F4F89468941F9318E00695E0DF1A95ED
:1003CA00E1F7D19AD09AD99AD89A1F910EF47894D3
:1003DA0008951F9318E01A95F1F71F9108954E7F1B
:1003EA0075DF0BE4F6DF0A95E9F70CECE0DF0EEBBC
:1003FA00DEDFAFDFE0916A00E0936C0000916B00F2
:10040A0000936E00A6DFF0916A00F0936D000091F0
:10041A006B0000936F005ADF0BE4DBDF0A95E9F704
:10042A000CECC5DF04E4C3DF08954D7FE0916C0056
:10043A00F0916D0011D0F09370001BD008954B7F9E
:10044A00E0916E00F0916F0007D0F09371000F2FCA
:10045A0043FF95DE0ED008950027F7FB1EF4F195B1
:10046A00E195F00BE07FFF70FE2BF2950EF4F1950B
:10047A0008952223E1F4009170001091720001178F
:10048A00B4F4E09173001E1B139501170CF0089544
:10049A00009171001091740001174CF4E0917600FC
:1004AA001E1B139501170CF00895959A08959598B7
:1004BA00089595980EE50093670004E4009366009A
:1004CA00213009F400EA223009F40EEC233009F451
:1004DA000AEE0093650040FD82DF222309F0F0CF87
:1004EA0086C04D7F43FD089561FD00EA62FD0EEC72
:1004FA0063FD0AEE64FD00EF0093650000E40093DB
:10050A00660006EB00936700089528D038DEE8EB12
:10051A00FBE0E0937700F0937800486008951ED0DE
:10052A002DD0011794F7039508D0EFCF17D032D00A
:10053A0010175CF70A9501D0E8CF406260FF00937C
:10054A00740061FD0093750062FD0093760063FDFF
:10055A000093720064FD00937300089560FF009198
:10056A00740061FD0091750062FD0091760063FDE3
:10057A000091720064FD00917300089560FF10916C
:10058A00750061FD1DE262FD1AE063FD1FE764FD6F
:10059A0014E1089560FF112761FD1AE062FD11E080
:1005AA0063FD18E264FD11E0089543FD08954F7D4F
:1005BA00F8940FD078940895E2E7C0E415E0E19941
:1005CA00FECFCEBBE09A0DB3019321961A95B9F7E7
:1005DA000895E2E7C0E415E0E199FECFCEBB0191B0
:1005EA000DBBE29AE19A21961A95B1F70895F8940B
:1005FA00E3DF442766276ADE0BE4EBDE0A95E9F7B8
:10060A000CECD5DE0EE4D3DE0FEFD1DE0FEFCFDE3A
:10061A000FE1CDDE00DF79DF04E6009379000EE614
:10062A0000937B0000937C00002700937D00789460
:10063A0060FD0FC009DE44FDDBDD40FDD0DE41FD7B
:10064A00F4DE42FDFCDE45FDB0DF222309F031CFA6
:10065A00EFCF95980AE000937400442763E000E422
:10066A00009365000093660000936700839BFECFAA
:10067A0060FF06C0E9DD44FDBBDD41FD32DFF8CF96
:10068A000AE0009365000093660000936700839B6D
:08069A00FECFF8949EDFABCF08
:00000001FF
